:020000040800F2
:10000000000005243D5B0008115500081955000843
:10001000215500082955000831550008000000004E
:100020000000000000000000000000004111010875
:10003000395500080000000091130108F1EC000898
:10004000915B0008915B0008915B0008915B0008E0
:10005000915B0008915B0008915B0008915B0008D0
:10006000915B0008915B0008915B0008495500080E
:10007000915B0008915B0008915B0008915B0008B0
:10008000915B0008915B0008915B000885550008B2
:10009000915B0008915B0008915B0008915B000890
:1000A000915B0008915B0008915B0008915B000880
:1000B000915B0008915B0008915B0008915B000870
:1000C000915B0008915B0008915B0008915B000860
:1000D000915B0008915B0008915B00085D5500088A
:1000E000915B0008915B000800000000915B000834
:1000F000915B0008915B0008915B0008915B000830
:10010000915B0008915B0008915B0008915B00081F
:10011000915B0008915B000871550008915B000835
:10012000915B0008915B0008915B0008915B0008FF
:10013000915B0008915B0008915B0008915B0008EF
:1001400000000000000000000000000000000000AF
:10015000915B0008915B0008915B0008915B0008CF
:10016000915B0008915B0008915B0008915B0008BF
:10017000915B0008915B0008915B000800000000A3
:10018000915B0008915B0008915B0008915B00089F
:10019000915B0008915B0008915B0008915B00088F
:1001A000915B0008915B0008915B00080000000073
:1001B000915B0008915B0008915B0008915B00086F
:1001C000915B0008915B0008000000000000000047
:1001D0000000000000000000915B0008000000002B
:1001E000000000000000000000000000000000000F
:1001F0000000000000000000915B0008915B000817
:10020000915B0008915B000800000000915B000812
:10021000915B0008915B0008915B0008915B00080E
:10022000915B000800000000915B000800000000E6
:10023000915B0008915B000800000000915B0008E2
:10024000915B0008915B0008915B0008915B0008DE
:10025000915B0008915B0008915B0008915B0008CE
:10026000915B0008915B0008915B0008915B0008BE
:10027000915B0008915B0008915B000800000000A2
:10028000915B0008915B0008915B0008915B00089E
:1002900000000000915B0008915B00080000000076
:1002A00000000000915B0008915B0008915B000872
:1002B000915B0008915B0008915B0008915B00086E
:0C02C000915B0008915B0008915B000856
:1002D00010B5054C237833B9044B13B10448AFF380
:1002E00000800123237010BDB8010024000000002D
:1002F0004046010808B5034B1BB103490348AFF35F
:10030000008008BD00000000BC0100244046010838
:1003100010F8012B11F8013B012A28BF9A42F7D0AF
:10032000D01A7047034613F8012B002AFBD1181A84
:1003300001387047000000000000000000000000CD
:1003400001F0FF01102A2BDB10F0070F08D010F886
:10035000013B013A8B422DD010F0070F42B3F6D18A
:10036000F0B441EA012141EA014122F007047FF0A3
:1003700000070023F0E80256083C85EA010586EAFA
:10038000010685FA47F5A3FA87F586FA47F6A5FA36
:1003900087F68EB9EED1F0BC01F0FF0102F0070242
:1003A00032B110F8013B013A83EA010313B1F8D1ED
:1003B0000020704701387047002D06BF35460338CE
:1003C000073815F0010F07D1013015F4807F02BF07
:1003D000013015F4C03F0130F0BC0138704700BF58
:1003E00053B94AB9002908BF00281CBF4FF0FF319C
:1003F0004FF0FF3000F088B9ADF1080C6DE904CE84
:1004000000F006F8DDF804E0DDE9022304B07047EF
:100410002DE9F047089D8E4604468846002B4AD1B8
:100420008A42174662D9B2FA82F64EB1C6F120036B
:1004300001FA06F820FA03F3B74043EA0808B4408B
:100440004FEA174E1FFA87FCB8FBFEF1230C0EFB98
:10045000118843EA084301FB0CF29A4209D9FB18C0
:1004600001F1FF3080F0EA809A4240F2E7800239E1
:100470003B449A1AA3B2B2FBFEF00EFB102243EAF1
:10048000024300FB0CFC9C4509D9FB1800F1FF322C
:1004900080F0D6809C4540F2D3803B44023840EA4D
:1004A0000140A3EB0C0300211DB1F3400022C5E97C
:1004B0000032BDE8F0878B4205D90DB1C5E90001D6
:1004C00000210846F5E7B3FA83F1002946D17345C8
:1004D00002D3824200F20581841A6EEB03020120EE
:1004E0009046002DE5D0C5E90048E2E7002A00F07B
:1004F0009080B2FA82F6002E40F0A4808A1A030C93
:100500004FEA174E80B2BCB20121B2FBFEFC0EFBDB
:100510001C2243EA024304FB0CF29A4207D9FB185F
:100520000CF1FF3802D29A4200F2E080C4469B1AD6
:10053000B3FBFEF20EFB123340EA034302FB04F46A
:100540009C4207D9FB1802F1FF3002D29C4200F214
:10055000CA8002461B1B42EA0C40A5E7C1F12006F7
:100560008B4022FA06F71F430EFA01F420FA06F335
:100570002EFA06FE4FEA1749234300FA01F81FFA44
:1005800087FCBEFBF9F01C0C09FB10EE44EA0E449C
:1005900000FB0CFEA64502FA01F209D93C1900F154
:1005A000FF3A80F09C80A64540F2998002383C4496
:1005B000A4EB0E041FFA83FEB4FBF9F309FB13440A
:1005C0004EEA044403FB0CFCA44508D93C1903F192
:1005D000FF3E80F08280A4457FD9023B3C4443EA41
:1005E0000040A4EB0C04A0FB02EC64457346E1461A
:1005F00062D35FD05DB1B8EB030264EB090404FA87
:1006000006F622FA01F31E43CC40C5E9006400213E
:100610004FE7B1FBF2FC010C41EA0E4180B240EA27
:1006200001423B4638463C46B846BE462026B1FB12
:10063000F7F1A2EB080241EA0C4166E7014618E730
:1006400010462CE7C6F120022EFA02F3B740B14063
:1006500020FA02F24FEA174E0A43B3FBFEF8BCB28F
:100660000EFB1833110C41EA034108FB04F9B040BA
:1006700089454FEA104380B23ED9791808F1FF3C12
:1006800001D289451FD8A1EB0901B1FBFEF909FB95
:1006900004F80EFB191192B242EA0142424529D2F6
:1006A000BA1809F1FF31C4D24245C2D2A9F1020100
:1006B0003A44BEE7F0459DD2BEEB02036CEB070C5B
:1006C0000138E14696E7A7EB09094944A8F1020C75
:1006D000B1FBFEF909FB04F8DBE773467FE7504600
:1006E00066E70846FDE63B44023A33E7ACF1020C0C
:1006F0003B441CE749469CE7A1EB0901C446B1FB1A
:10070000FEF909FB04F8C4E7704700BF80B582B06A
:1007100000AF78600B46FB707B681B781846FB784F
:100720001A46796800F0D2FC00BF0837BD4680BD8C
:1007300080B586B000AF0346FB7107F108030022C5
:100740001A605A609A60DA60FB793B720A237B7206
:100750006D23BB726B23FB7207F10803042118465B
:10076000FFF7D4FF00BF1837BD4680BD80B588B005
:1007700000AF03460A46FB711346BB710023FB77AB
:1007800007F10C0300221A605A609A60DA60FB7F5E
:1007900020333B44FA7903F8142CFB7F0133FB77B9
:1007A000BB79102B00F2C48001A252F823F000BFE5
:1007B000F5070008090800081D08000831080008AE
:1007C00031090008450800083109000859080008E7
:1007D0006D0800088108000895080008A9080008AD
:1007E00031090008BD080008E50800080B090008E9
:1007F000D1080008FB7F20333B441F2203F8142C50
:10080000FB7F0133FB7794E0FB7F20333B442022C6
:1008100003F8142CFB7F0133FB778AE0FB7F203346
:100820003B44212203F8142CFB7F0133FB7780E04B
:10083000FB7F20333B44242203F8142CFB7F01333D
:10084000FB7776E0FB7F20333B44272203F8142C10
:10085000FB7F0133FB776CE0FB7F20333B4431228D
:1008600003F8142CFB7F0133FB7762E0FB7F20331E
:100870003B44332203F8142CFB7F0133FB7758E011
:10088000FB7F20333B44352203F8142CFB7F0133DC
:10089000FB774EE0FB7F20333B44362203F8142CD9
:1008A000FB7F0133FB7744E0FB7F20333B4437225F
:1008B00003F8142CFB7F0133FB773AE0FB7F2033F6
:1008C0003B443A2203F8142CFB7F0133FB7730E0E2
:1008D000FB7F20333B443B2203F8142CFB7F013386
:1008E000FB7726E0FB7F20333B44422203F8142CA5
:1008F000FB7F0133FB77FB7F20333B446C2203F803
:10090000142CFB7F0133FB7713E0FB7F20333B4448
:10091000432203F8142CFB7F0133FB77FB7F20334A
:100920003B447A2203F8142CFB7F0133FB7700E071
:1009300000BFFB7F20333B446B2203F8142CFB7F6A
:100940000133FB77FA7F07F10C0311461846FFF7D6
:10095000DDFE00BF2037BD4680BD00BF90B587B02B
:1009600000AF0446084611461A462346FB7103466B
:10097000BB710B46BB801346FB7007F108030022D6
:100980001A605A609A60DA60FB793B72F6237B72D8
:10099000BB79BB72BB881B0A9BB2DBB2FB72BB8804
:1009A000DBB23B73FB787B7397F82830BB736B2308
:1009B000FB7307F1080308211846FFF7A7FE00BFE5
:1009C0001C37BD4690BD90B587B000AF04460846C1
:1009D00011461A462346FB710346BB710B46BB808A
:1009E0001346FB7007F1080300221A605A609A60F0
:1009F000DA60FB793B72FD237B72BB79BB72BB88EB
:100A00001B0A9BB2DBB2FB72BB88DBB23B73FB7889
:100A10007B73BB6A1B0EDBB2BB73BB6A1B0CDBB206
:100A2000FB73BB6A1B0ADBB23B74BB6ADBB27B7431
:100A300097F82C30BB7497F83030FB746B233B7500
:100A400007F108030D211846FFF760FE00BF1C37B1
:100A5000BD4690BD80B586B000AF03460A46FB7127
:100A60001346BB7107F1080300221A605A609A60AE
:100A7000DA60FB793B72FE237B729823BB72BB79F1
:100A8000FB726B233B7307F1080305211846FFF740
:100A90003DFE00BF1837BD4680BD000080B582B066
:100AA00000AF0D4BD3F8D8300B4A43F00103C2F826
:100AB000D830094BD3F8D83003F001037B607B6852
:100AC000002205210B2005F09DF90B2005F0B4F95B
:100AD00000BF0837BD4680BD0044025880B500AF56
:100AE0002E4B2F4A1A602D4B00229A602B4B00226E
:100AF000DA602A4B00221A74284B00225A74274BC2
:100B000000229A74254B0B225A61244B04229A61CD
:100B1000224B1422DA61214B04221A621F4B01225C
:100B20005A621E4B01229A621C4B0122DA621B4B55
:100B300001221A63194B00225A63184B01229A634F
:100B4000164B0022DA63154B20221A64134B042241
:100B50005A64124B00229A64104B0422DA640F4B41
:100B600000221A650D4B04225A650C4B00229A652F
:100B70000A4B0022DA65094B00221A66074B002255
:100B80005A66064B04229A66044807F0FDFB0346AA
:100B9000002B01D000F044FA00BF80BD64020024A5
:100BA00000A0004080B5B8B000AF786007F1CC037A
:100BB00000221A605A609A60DA601A6107F1100325
:100BC000B8220021184610F0BFFF7B681B682A4A34
:100BD00093424DD14FF400424FF00003C7E9042384
:100BE0004FF08053FB6707F1100318460AF050F8E6
:100BF0000346002B01D000F013FA204BD3F8EC3061
:100C00001E4A43F48073C2F8EC301C4BD3F8EC302E
:100C100003F48073FB60FB68184BD3F8E030174A8D
:100C200043F00803C2F8E030144BD3F8E03003F08F
:100C30000803BB60BB680323C7F8CC300223C7F8A6
:100C4000D0300023C7F8D4300023C7F8D8300923A8
:100C5000C7F8DC3007F1CC031946094808F074FDE9
:100C600000220521132005F0CDF8132005F0E4F84B
:100C700000BFE037BD4680BD00A0004000440258E0
:100C8000000C025880B582B000AF786039603B68D4
:100C900003F00103002B0CD0084B094A402178686F
:100CA00007F04CFE0346002B03D1054B012283F8CD
:100CB0008C2000BF0837BD4680BD00BFFC0100246A
:100CC000D401002480B500AF044A002104480EF08E
:100CD00073F80346034A136000BF80BDC44D01088A
:100CE000E90C00080403002480B582B000AF7860EE
:100CF00001F05CFE01200EF0F1F8FBE780B485B056
:100D000000AF194BD3F8E030174A43F08003C2F824
:100D1000E030154BD3F8E03003F08003FB60FB6854
:100D2000114BD3F8E030104A43F00203C2F8E03030
:100D30000D4BD3F8E03003F00203BB60BB680A4BF5
:100D4000D3F8E030084A43F00103C2F8E030064B24
:100D5000D3F8E03003F001037B607B6800BF1437F9
:100D6000BD465DF8047B70470044025880B58CB0E6
:100D700000AF00F017F904F00DFF504B5B6903F46E
:100D80000033002B1BD1BFF34F8F00BFBFF36F8F1A
:100D900000BF4A4B0022C3F85022BFF34F8F00BF61
:100DA000BFF36F8F00BF454B5B69444A43F4003388
:100DB0005361BFF34F8F00BFBFF36F8F00E000BFE1
:100DC0003E4B5B6903F48033002B38D13B4B002250
:100DD000C3F88420BFF34F8F00BF384BD3F8803067
:100DE000FB62FB6A5B0BC3F30E03BB62FB6ADB08AF
:100DF000C3F309037B62BB6A5A0143F6E0731340F5
:100E00007A6A92072D491343C1F860327B6A5A1EF1
:100E10007A62002BEFD1BB6A5A1EBA62002BE5D171
:100E2000BFF34F8F00BF254B5B69244A43F48033E7
:100E30005361BFF34F8F00BFBFF36F8F00E000BF60
:100E400000F040F8FFF75AFFFFF728FE04F082FC9D
:100E500004F0CCFCFFF742FE00F0E8F800237B60D2
:100E60000023BB600223FB6001233B6100237B6105
:100E70000023BB613B1D1946114807F063FC034684
:100E8000002B01D000F0CCF80D4807F0D1FC034650
:100E9000002B01D000F0C4F800220121084807F01F
:100EA000CBFE0346002B01D000F0BAF80DF03AFF5C
:100EB000FFF708FF0DF05AFF00BFFDE700ED00E06F
:100EC0006402002480B59CB000AF07F124034C22DB
:100ED0000021184610F038FE3B1D20220021184644
:100EE00010F032FE022008F0F1FE00233B602C4B94
:100EF0009B692B4A23F440439361294B9B6903F47C
:100F000040433B603B6800BF254B9B6903F40053A3
:100F1000B3F5005FF8D121237B624FF48033BB62CD
:100F20000123FB630223BB640223FB6402233B65B2
:100F30002C237B650123BB650423FB6502233B66F1
:100F40000C237B660023BB660023FB6607F12403AA
:100F5000184608F0F5FE0346002B01D000F060F8BB
:100F60003F237B600323BB600023FB6008233B61BE
:100F700040237B614023BB614FF48063FB614023CE
:100F80003B623B1D0321184609F0B4FA0346002BCF
:100F900001D000F045F800BF7037BD4680BD00BFEE
:100FA0000048025880B584B000AF3B4600221A606A
:100FB0005A609A60DA6004F04DFF01233B70002311
:100FC0007B7000237B601F233B7287237B7200238F
:100FD000BB720023FB7201233B7301237B7300234D
:100FE000BB730023FB733B46184604F06BFF0420E1
:100FF00004F048FF00BF1037BD4680BD80B582B009
:1010000000AF78607B681B68044A934201D104F00A
:10101000FDFD00BF0837BD4680BD00BF0010004089
:1010200080B400AF72B600BF00BFFDE780B500AF6F
:10103000074B084A1A60064B00225A6004480BF01E
:10104000E9FB0346002B01D0FFF7EAFF00BF80BD9C
:10105000080300240018024880B5B2B000AF7860E1
:1010600007F11003B8220021184610F06DFD7B68CF
:101070001B68144A934221D14FF400324FF0000311
:10108000C7E904230023C7F88C3007F11003184682
:1010900009F0FEFD0346002B01D0FFF7C1FF0A4B0C
:1010A000D3F8DC30084A43F04003C2F8DC30064B8A
:1010B000D3F8DC3003F04003FB60FB6800BFC837A7
:1010C000BD4680BD001802480044025880B58EB06D
:1010D00000AFF860B9601346FB71FB687B610023C9
:1010E000BB610023FB61FB79082B02D8FB791B0451
:1010F00000E008233B62FB79072B2BD801A252F8B2
:1011000023F000BF251100082B1100083111000841
:10111000371100083D11000843110008491100086B
:101120004F11000800233B6217E001233B6214E0EB
:1011300002233B6211E003233B620EE004233B6287
:101140000BE005233B6208E006233B6205E0072332
:101150003B6202E008233B6200BF00237B62002366
:10116000BB620023FB6200233B6300237B630A48CE
:1011700007F050FD0346002B08D007F11403BA68AE
:101180001946054807F07FFB034600E00223184696
:101190003837BD4680BD00BF6402002480B582B0F0
:1011A00000AF0346FB71C8200EF090FE10F094F8DB
:1011B000FB790B4A2C2101FB03F3134470331A68AB
:1011C000FB7922F0020206492C2000FB03F30B44BA
:1011D00070331A6010F0B2F800BF0837BD4680BD0A
:1011E0001C03002490B58DB002AFF86087ED020AB1
:1011F0000B46FB71FB68052B01D901236DE004F060
:1012000019FD03467B62FB682C2202FB03F350337B
:10121000344A13443B62D7ED027AF5EEC07AF1EE20
:1012200010FA02DD3B6A1B7906E03B6A1B79002B52
:101230000CBF01230023DBB2FB773B6A1B6A23F060
:1012400001023B6A1A62FB680133BB613B6ABA6800
:101250005A62D7ED027A9FED247A27EE877A3B6AAD
:10126000D3ED027A27EE277ADFED206AC7EE267AE1
:10127000F0EEE77AFCEEE77A17EE903AFB820EF09A
:10128000CBFE1B4B002283F88C201AE004F0D2FC2A
:1012900002467B6AD31A0A2B07D9F968154804F06D
:1012A000E3FB0EF0C7FE012317E0BB69D8B2FB7960
:1012B000FA8AF97F00240094FFF750FB012004F024
:1012C000C5FC0B4B93F88C30DBB283F00103DBB22F
:1012D000002BDBD10EF0AEFE002318462C37BD46A6
:1012E00090BD00BF1C030024000016440000B4435E
:1012F000D40100246446010890B593B006AF78612C
:1013000087ED030AC7ED020A7A601A460B46FB74A2
:101310001346BB747B69052B04D98F4804F0A4FBEA
:1013200001230EE1D7ED027AF5EEC07AF1EE10FA64
:1013300004D58A4804F098FB012302E14FF0000332
:10134000FB627B692C2202FB03F35033844A134473
:101350007B62BB7C002B6FD07B6AD3ED007A97ED6C
:10136000037A77EE677AC7ED0B7AD7ED0B7AF0EE5A
:10137000E77A9FED7C7AF4EEC77AF1EE10FA01D5A8
:101380000023DEE097F91330012B02D17B6A1B7931
:1013900006E07B6A1B79002B0CBF01230023DBB224
:1013A00087F82B30D7ED0B7AF5EEC07AF1EE10FA14
:1013B0000FD597F91330B3F1FF3F0AD0D7ED0B7A71
:1013C000F0EEE77A9FED687A77EE677AC7ED0B7AF1
:1013D00014E0D7ED0B7AF5EEC07AF1EE10FA0DDDE0
:1013E00097F91330012B09D0D7ED0B7AF0EEE77A9D
:1013F0009FED5D7A77EE677AC7ED0B7A7B6AD3ED66
:10140000007AB7EEE75AD7ED037AB7EEE77AD7ED71
:101410000B6AB7EEE66A97F9133004938DED026B11
:101420008DED007B53EC152B7969504804F046FB99
:101430007B6AFA681A6034E0FB68FB627B6A93EDB2
:10144000007A97F91330012B04D0D7ED037AF1EE2F
:10145000677A01E0D7ED037A77EE877A7B6AC3ED8E
:10146000007A97F91330012B02D17B6A1B7906E0D1
:101470007B6A1B79002B0CBF01230023DBB287F8AA
:101480002B30D7ED0B7AF5EEC07AF1EE10FA08D5D5
:1014900097F82B30002B0CBF01230023DBB287F819
:1014A0002B307B6A93ED027AD7ED0B7A67EE277AC1
:1014B0009FED2F7A27EE877ADFED2B6AC7EE267A2B
:1014C000B7EEE77AB0EE470B12F0CAF8B0EE407B09
:1014D000B0EEC77BFCEEC77B17EE903A3B62D7EDD0
:1014E000027A9FED247A27EE877A7B6AD3ED027A1F
:1014F00067EE277AB7EEE76A9FED155B86EE057B10
:10150000B0EEC77BFCEEC77B17EE903AFB837B699E
:101510000133BB617B6A1B6A23F004027B6A1A6297
:10152000BB69D8B27B68DCB2FA8B97F82B1000232A
:101530000293002301933B6A00932346FFF743FA8B
:10154000002318463437BD4690BD00BFAFF300807E
:1015500000000000008076407C4601089C4601089F
:101560001C030024CDCCCC3D0000B443B846010898
:10157000000048450000164480B588B000AF03461F
:10158000FB71FB791C4A2C2101FB03F313445C33F0
:101590001A68FB7918492C2000FB03F30B446033D5
:1015A0001B881946104608F077FA07F10C03002251
:1015B0001A605A609A60DA601A61FB790E4A2C212F
:1015C00001FB03F3134460331B88FB6000233B6182
:1015D00001237B61FB79084A2C2101FB03F31344AF
:1015E0005C331B6807F10C021146184608F0ACF892
:1015F00000BF2037BD4680BD1C03002480B588B0E5
:1016000000AF0346FB71FB791D4A2C2101FB03F35C
:1016100013445C331A68FB7919492C2000FB03F34F
:101620000B4460331B881946104608F035FA07F161
:101630000C0300221A605A609A60DA601A61FB7922
:101640000F4A2C2101FB03F3134460331B88FB601A
:101650004FF444133B6101237B61FB79084A2C2141
:1016600001FB03F313445C331B6807F10C021146C2
:10167000184608F069F800BF2037BD4680BD00BF9E
:101680001C03002480B584B000AF0346FB71FB79D6
:101690000C4A2C2101FB03F313445C331A68FB79D9
:1016A00008492C2000FB03F30B4460331B881946C8
:1016B000104608F0F3FA0346FB73FB7B184610371D
:1016C000BD4680BD1C03002480B584B000AF034636
:1016D000FB71FB79264A2C2101FB03F313446C3385
:1016E00093F90030FB60FB791846FFF745FFFB7963
:1016F0001846FFF7C7FF0346FB72FB791846FFF752
:101700007DFFFB7A012B0BD1FB791946194804F0B8
:10171000ABF9FB790133DBB21846FFF709F823E098
:10172000F879FB6859B200236422F2EE040A9FEDB7
:10173000120AFFF7E1FD02E0C8200EF0C7FBFB79BB
:101740000B4A2C2101FB03F3134470331B6803F095
:101750000203002BF0D005200EF0B8FBFB7901331B
:10176000DBB21846FEF7E4FF1037BD4680BD00BF70
:101770001C030024E44601080000B44380B582B095
:1017800000AF04237B601CE0264A7B682C2101FB10
:1017900003F3134470331B6843F0010221497B6853
:1017A0002C2000FB03F30B4470331A607B68DBB220
:1017B0001846FFF789FF64200EF088FB7B68013B29
:1017C0007B607B68002BDFDA00233B6011E0164A68
:1017D0003B682C2101FB03F313441A6811493B6851
:1017E0002C2000FB03F30B4450331A603B68013399
:1017F0003B603B68052BEADD0A4B4FF00002C3F863
:101800006421084B4FF00002C3F86821054B4FF0EC
:101810000002C3F86C2101F015FA00BF0837BD467D
:1018200080BD00BF1C0300240000002480B487B0EA
:1018300000AF87ED030AC7ED020A87ED011A386091
:101840003B68002B01D1012382E0FB687B6197EDAF
:10185000037AD7ED027A77EE677AF0EEE77A9FEDBA
:101860003F7AF4EEC77AF1EE10FA02D5BB687B61DD
:1018700010E097ED037AD7ED017A77EE677AF0EE14
:10188000E77A9FED367AF4EEC77AF1EE10FA01D5D9
:101890007B687B6197ED037AD7ED027AB4EEE77A45
:1018A000F1EE10FA08D5D7ED057A9FED2D7A77EE97
:1018B000877AC7ED057A10E097ED037AD7ED017AC4
:1018C000B4EEE77AF1EE10FA07DDD7ED057A9FED79
:1018D000247A77EEC77AC7ED057A97ED057AD7EDCA
:1018E000027A77EE677AF0EEE77A9FED1C7AF4EEF3
:1018F000C77AF1EE10FA02D5BB687B6110E097ED74
:10190000057AD7ED017A77EE677AF0EEE77A9FED08
:10191000137AF4EEC77AF1EE10FA01D57B687B6199
:1019200097ED057AD7ED027AB4EEE77AF1EE10FA88
:1019300008D497ED057AD7ED017AB4EEE77AF1EEA7
:1019400010FA01DD012303E03B687A691A60002385
:1019500018461C37BD465DF8047B7047CDCCCC3DA6
:101960000000B44390B589B004AF4FF000033B6072
:1019700000237B600523FB60E4E07E4AFB682C21AA
:1019800001FB03F3134470331B6843F001027949F0
:10199000FB682C2000FB03F30B4470331A60012317
:1019A000BB60FB68DBB2184601F06AFA714AFB685B
:1019B0002C2101FB03F313445033D3ED007A6E4A1C
:1019C000FB682C2101FB03F31344143393ED007ADD
:1019D000694AFB682C2101FB03F313441833D3ED50
:1019E000006A3B461846B0EE661AF0EE470AB0EEC3
:1019F000670AFFF71BFF78607B68002B11D05D4AF8
:101A0000FB682C2101FB03F313445033D3ED007A20
:101A1000B7EEE77A53EC172BF968584804F024F82E
:101A2000A5E0554AFB682C2101FB03F3134493ED19
:101A3000007AD7ED007AB4EEE77AF1EE10FA02D52B
:101A40004FF0FF33BB604C4AFB682C2101FB03F3D2
:101A500013441433D3ED007AF5EE407AF1EE10FA28
:101A600027D1454AFB682C2101FB03F313441833AB
:101A7000D3ED007A9FED427AF4EE477AF1EE10FA58
:101A800017D197ED007A3C4AFB682C2101FB03F348
:101A90001344D3ED007A77EE677AF0EEE77A9FEDA4
:101AA000397AF4EEC77AF1EE10FA02DDBB685B42D8
:101AB000BB60D7ED007AB7EEE76A2F4AFB682C21AE
:101AC00001FB03F31344D3ED007AB7EEE77ABB686A
:101AD00002938DED007B53EC162BF9682A4803F036
:101AE000EDFF3A682349FB682C2000FB03F30B440D
:101AF00050331A60F868BB6859B21F4AFB682C243F
:101B000004FB03F31344D3ED007A01236422F2EEC5
:101B1000040AB0EE670AFFF7EFFB64200EF0D6F977
:101B2000154AFB682C2101FB03F313441A68114981
:101B3000FB682C2000FB03F30B4450331A60FB6856
:101B4000013BFB60FB68002BBFF617AF094B4FF062
:101B50000002C3F86421074B4FF00002C3F868216C
:101B6000044B4FF00002C3F86C2101F06BF81437FE
:101B7000BD4690BD1C030024000000240C47010852
:101B80000000B443000034434447010880B58AB0E4
:101B900000AF7860396000233B6207F10C0300223C
:101BA0001A605A609A600023FB61324B1B68002B5D
:101BB00004D1314803F058FF002357E07B682F4AD7
:101BC000A2FB03235B093B623A6A13465B001344A2
:101BD0009B0018460FF090FE0346BB61BB69002BCB
:101BE00001D1002342E000237B6237E0214B1B68D8
:101BF0007A6A642101FB02F2104607F10C021146D9
:101C00009847F861FB69002B07D01D4803F02CFFB3
:101C1000B8690FF079FE002328E07A6A13465B006A
:101C200013449B001A46BB691344FA681A607A6A27
:101C300013465B0013449B001A46BB6913443A6980
:101C40005A607A6A13465B0013449B001A46BB69CC
:101C500013447A699A607B6A01337B627A6A3B6AD1
:101C60009A42C3DB3B683A6A1A60BB691846283758
:101C7000BD4680BD08010024704701081F85EB5157
:101C80008C47010880B58EB004AF78600023FB60FC
:101C900007F10C0319467868FFF778FFB861BB6954
:101CA000002B03D17C4803F0DFFEF2E0FB681A460C
:101CB00013465B001344DB0018460FF01DFE03467D
:101CC0007B617B69002B06D1744803F0CDFEB869B7
:101CD0000FF01AFEDDE000237B6211E07A6A7049A2
:101CE0007B6A2C2000FB03F30B445033D3ED007AC6
:101CF000B0EE670A104603F0C1FA7B6A01337B62DB
:101D00007B6A052BEADD00233B6286E03A6A1346D4
:101D10005B0013449B001A46BB6913441A46614991
:101D2000614803F037FB3A6A13465B001344DB005B
:101D30001A467B691344002219465A4803F0B8FA40
:101D400038613B69002B09D0584803F08DFEB86913
:101D50000FF0DAFD78690FF0D7FD9AE03A6A134682
:101D60005B001344DB001A467B691344184603F0FA
:101D700075FA3A6A13465B0013449B001A46BB6926
:101D80001344D3ED007AB7EEE75A3A6A13465B0084
:101D900013449B001A46BB691344D3ED017AB7EE96
:101DA000E77A3A6A13465B0013449B001A46BB6904
:101DB0001344D3ED026AB7EEE66A8DED026B8DED4A
:101DC000007B53EC152B396A394803F04DFE394836
:101DD00003F04AFE0023FB6116E03A6A13465B00FB
:101DE00013445B001A46FB6913449B007A69134451
:101DF000D3ED007AB7EEE77A53EC172B2E4803F0B9
:101E000033FEFB690133FB61FB69052BE5DD2B48E4
:101E100003F02AFE3B6A01333B62FB683A6A9A424E
:101E2000FFF674AFFB687A691946B86900F0C2F929
:101E300038613B69002B26D1FB681A4613465B00CC
:101E400013449B000C3BBA6913441B68144AC2F844
:101E50006431FB681A4613465B0013449B000C3B3D
:101E6000BA6913445B680E4AC2F86831FB681A46C7
:101E700013465B0013449B000C3BBA6913449B68F8
:101E8000074AC2F86C31B8690FF03EFD78690FF06F
:101E90003BFD2837BD4680BD8C470108A44701089B
:101EA0001C0300242C030024484E0108BC470108F1
:101EB000E0470108F8470108044801080C480108F8
:101EC00080B58EB004AF78600023BB607B680433BC
:101ED000BB6107F108031946B86900F0E9FE7861B3
:101EE0007B69002B03D1714803F0BEFDDAE0BB68CB
:101EF0001A4613465B001344DB0018460FF0FCFC47
:101F000003463B613B69002B06D1694803F0ACFDF9
:101F100078690FF0F9FCC5E000237B6211E07A6A72
:101F200064497B6A2C2000FB03F30B445033D3ED50
:101F3000007AB0EE670A104603F0A0F97B6A01331D
:101F40007B627B6A052BEADD00233B6286E03A6A0E
:101F500013465B0013449B001A467B6913441A46E0
:101F60005549564803F016FA3A6A13465B00134483
:101F7000DB001A463B691344002219464E4803F021
:101F800097F9F860FB68002B09D04D4803F06CFD11
:101F900078690FF0B9FC38690FF0B6FC82E03A6A54
:101FA00013465B001344DB001A463B691344184692
:101FB00003F054F93A6A13465B0013449B001A4637
:101FC0007B691344D3ED007AB7EEE75A3A6A1346B9
:101FD0005B0013449B001A467B691344D3ED017ADE
:101FE000B7EEE77A3A6A13465B0013449B001A4641
:101FF0007B691344D3ED026AB7EEE66A8DED026B9E
:102000008DED007B53EC152B396A2E4803F02CFD27
:102010002D4803F029FD0023FB6116E03A6A1346C0
:102020005B0013445B001A46FB6913449B003A694A
:102030001344D3ED007AB7EEE77A53EC172B23481D
:1020400003F012FDFB690133FB61FB69052BE5DD44
:102050001F4803F009FD3B6A01333B62BB683A6AE3
:102060009A42FFF674AFBB683A691946786900F086
:10207000A1F8F860FB68002B0ED1BB691B680D4A04
:10208000C2F86431BB695B680A4AC2F86831BB694F
:102090009B68084AC2F86C3178690FF035FC3869E2
:1020A0000FF032FC2837BD4680BD00BF1048010844
:1020B000A44701081C0300242C030024484E0108F7
:1020C000BC470108E0470108F84701080448010837
:1020D0000C48010880B483B000AF87ED010AD7ED4A
:1020E000017A9FED127AF4EEC77AF1EE10FA06DB70
:1020F000D7ED017A9FED0D7A77EEC77A0FE0D7ED35
:10210000017AF5EEC07AF1EE10FA06D5D7ED017A34
:102110009FED067A77EE877A01E0D7ED017AB0EE8F
:10212000670A0C37BD465DF8047B70470000B44376
:1021300080B485B000AF87ED010AC7ED000A97EDC6
:10214000007AD7ED017A77EE677AC7ED037AD7ED9B
:10215000037A9FED157AF4EEC77AF1EE10FA08DDF6
:10216000D7ED037A9FED117A77EEC77AC7ED037A40
:1021700010E0D7ED037A9FED0E7AF4EEC77AF1EE18
:1021800010FA07D5D7ED037A9FED087A77EE877AB4
:10219000C7ED037AFB6807EE903AB0EE670A143792
:1021A000BD465DF8047B7047000034430000B44333
:1021B000000034C390B5A5B002AFF860B9607A6092
:1021C00000237B6700233B6707F1580300221A6056
:1021D0005A609A60DA601A615A6107F1400300227E
:1021E0001A605A609A60DA601A615A6107F128032E
:1021F00000221A605A609A60DA601A615A6107F127
:10220000100300221A605A609A60DA601A615A61FB
:1022100003F010FD03467B670123C7F8843058E0C4
:10222000D7F88430642202FB03F37A6F13443B67D0
:102230000023C7F880302EE0D7F8842013465B00D7
:1022400013445B001A46D7F8803013449B007A6829
:102250001344D3ED007AB0EE670AFFF73BFFF0EED0
:10226000407AD7F880309B0088333B44303BC3ED45
:10227000007AD7F880309B0088333B44303B1A68A3
:102280003349D7F880309B000B441A60D7F8803070
:102290000133C7F88030D7F88030052BCCDD0BE058
:1022A00007F1100307F1400207F1280107F1580078
:1022B0000624009400F058F903F0BCFC02463B6F82
:1022C0009A42EDD300F0BEFCD7F884300133C7F852
:1022D0008430D7F88420BB689A42A1DB0023FB67D7
:1022E0000AE0FB6FDBB2184600F092FE05200DF00D
:1022F000EDFDFB6F0133FB67FB6F052BF1DD002369
:10230000BB6719E0BB6F591CBB6F9B0088333B4414
:10231000783BD3ED006ABB6807EE903AB8EEE77AF7
:10232000C6EE877AB7EEE77A53EC172B094803F02D
:102330009BFBBB6F0133BB67BB6F052BE2DD064820
:1023400003F092FB002318468C37BD4690BD00BFBA
:10235000C8040024344801085048010880B584B0FE
:1023600000AF78600023FB6021E0F8687A68FB68C2
:102370009B0013440433D3ED007A0123C822F2EE0C
:10238000040AB0EE670A0121FEF7B6FF7A68FB681F
:102390009B00134404331A680949FB682C2000FB96
:1023A00003F30B4450331A60FB680133FB60FB6896
:1023B000052BDADD00BF00BF1037BD4680BD00BF72
:1023C0001C03002480B58AB000AF7860594803F040
:1023D0004BFB07F10C0300221A605A609A60DA6026
:1023E0001A615A619A6192E03B7B092B00F28C8062
:1023F00001A252F823F000BF212400085324000852
:102400008524000899240008AB240008C324000890
:10241000CF240008DB240008EB240008F724000880
:102420007B7B1946D7ED047AB7EEE77A53EC172B8E
:10243000414803F019FB7B7B1846D7ED047A002353
:10244000C822F2EE040AB0EE670A0121FEF754FF3B
:102450005DE07B7B1946D7ED047AB7EEE77A53EC63
:10246000172B364803F000FB7B7B1846D7ED047A28
:102470000123C822F2EE040AB0EE670A0121FEF73A
:102480003BFF44E07B7B19462D4803F0EDFA7B7B54
:102490001846FEF783FE3AE02A4803F0E5FA07F112
:1024A0000C031846FFF70CFD31E0274803F0DCFA77
:1024B000D7ED047AFCEEE77A17EE900AFFF7E2FB1D
:1024C00025E0224803F0D0FAFFF758F91FE0204832
:1024D00003F0CAFAFFF746FA19E01E4803F0C4FAFF
:1024E0007B7B184600F0CCFC11E01B4803F0BCFAE3
:1024F00000F0ECF80BE0194803F0B6FA07F10C0312
:102500001846FFF72BFF02E0154803F0ADFA154B14
:10251000D3F85C3107F10C014FF0FF3218460DF093
:10252000C7F80346012B3FF45FAF00BF00BF283759
:10253000BD4680BD6C4801088C480108B8480108B8
:10254000E448010810490108244901083C490108F0
:10255000544901086C490108804901089C49010857
:10256000B84901081C03002480B58AB000AFF860A8
:10257000B9607A603B604FF000033B6203F05AFBA6
:1025800003461433FB6100237B6281E07B6ADBB28C
:10259000184600F075FC494A7B6A2C2101FB03F3C5
:1025A000134450331A6846497B6A9B000B441A60F7
:1025B000424A7B6A2C2101FB03F313445033D3EDD1
:1025C000007A7B6A9B00FA68134493ED007AF0EE80
:1025D000470AB0EE670AFFF7ABFD87ED080A7B6A92
:1025E0009B00BA68134493ED007A7B6A9B00BA683B
:1025F0001344D7ED087A77EE277AC3ED007A3B686B
:10260000002B11D07B6A9B003A68134493ED007A4B
:10261000D7ED087AF0EEE77A7B6A9B003A681344BC
:1026200077EE277AC3ED007AD7ED087AB2EE047A16
:1026300027EE877A7B6A9B00BA681344D3ED007A51
:10264000DFED206A67EEA67A37EE277A7B6A9B0079
:102650007A681344D3ED007AD7ED086A76EEE77A0C
:10266000DFED196A67EEA67A77EE277AC7ED057A6D
:102670007B6A9B007A6813443A6A1A607B6AC821B5
:1026800097ED050A1846FEF7ADFD7B6A01337B62C4
:102690007A6A3B6B9A42FFF679AF03F0CBFAB861E6
:1026A000BA69FB699A4205D2FA69BB69D31A18461E
:1026B0000DF00CFC00BF2837BD4680BD1C03002474
:1026C000E00400246F12033B000000002DE9B04F2E
:1026D000AEB002AF4FF000024FF00003C7E92A236B
:1026E00007F17C0300221A605A609A60DA601A616E
:1026F0005A6107F1640300221A605A609A60DA6036
:102700001A615A6107F14C0300221A605A609A60FC
:10271000DA601A615A6107F1400300221A605A60B8
:102720009A603B464022002118460FF00DFA002324
:10273000C7F8A430914803F097F940F6B8300DF08F
:10274000C5FB8F4803F090F903F074FA03460022AA
:102750009A469346C7E92AABE8E0D7E92A2312F163
:10276000320843F10009C7E92A89864B93ED597A6B
:10277000854BD3ED007ADFED856A67EEA66A9FEDA3
:10278000846AC6EE867A77EE277A824BC3ED007AAA
:102790007C4B93ED5A7A7C4BD3ED017ADFED7B6A6B
:1027A00067EEA66A9FED7A6AC6EE867A77EE277A9A
:1027B000784BC3ED017A734B93ED5B7A724BD3ED9B
:1027C000027ADFED726A67EEA66A9FED716AC6EE65
:1027D000867A77EE277A6F4BC3ED027A3B466D4AD5
:1027E00019466D4802F0D6FD3B4600226B4918465B
:1027F00002F05EFDC7F89400D7F89430002B25DA7C
:10280000D7F8A4300133C7F8A430D7F8A430092B87
:1028100005DD634803F028F90023C7F8A43000233E
:10282000C7F8A0300DE0D7F8A030DBB2184600F0B2
:10283000EFFB05200DF04AFBD7F8A0300133C7F8B5
:10284000A030D7F8A030052BEDDD6FE00023C7F8EE
:10285000A430524802F002FD4E4B1B68494AC2F8B0
:1028600064314C4B5B68474AC2F86831494B9B68FE
:10287000444AC2F86C31444BD3ED037AC821B0EE20
:10288000670A0420FEF7AEFC3F4BD3ED047AC82163
:10289000B0EE670A0520FEF7A5FC0023C7F89C30C0
:1028A00028E0394AD7F89C3004339B0013440433A2
:1028B000D3ED007AB0EE670AFFF70CFCF0EE407A39
:1028C000D7F89C309B00B0333B44343BC3ED007AD7
:1028D000D7F89C309B00B0333B44343B1A683149F5
:1028E000D7F89C309B000B441A60D7F89C3001331A
:1028F000C7F89C30D7F89C30052BD2DD0AE007F1F1
:10290000640207F14C0107F17C00042300930023CB
:10291000FFF72AFE03F08EF9034600221C461546F7
:10292000D7E92A23944275EB0303E8D3154BD3F878
:10293000583103F00803002B7FF40FAF0023C7F8D2
:1029400098300DE0D7F89830DBB2184600F060FB05
:1029500005200DF0BBFAD7F898300133C7F898304E
:10296000D7F89830052BEDDD0F4803F07DF80023F4
:102970001846B037BD46BDE8B08F00BFD04901084A
:10298000E84901081C030024980400240000484280
:1029900000007A44F8040024484E0108AC040024E6
:1029A000BC470108C8040024044A0108B0B58AB035
:1029B00000AF3A4B3A4A503311464FF484721846EE
:1029C0000FF064F9354B374A03F1100415460FCD6B
:1029D0000FC40FCD0FC40FCD0FC495E80F0084E8CE
:1029E0000F0000221C2114200CF063FC03462B4A2C
:1029F000C2F85C31294BD3F85C31002B03D12A4853
:102A000003F032F847E00022812132200CF051FC23
:102A10000346224AC2F86031204BD3F86031002BC4
:102A200003D1224803F020F835E03B1D2422002189
:102A300018460FF089F81E4B7B604FF48053BB6142
:102A40003323FB613B1D1A4600211A480CF0B4F9F0
:102A50000346124A1360114B1B68002B03D1164822
:102A600003F002F817E0154B7B604FF40063BB6185
:102A70003223FB613B1D1A46002111480CF09CF9E2
:102A80000346064A5360054B5B68002B03D10D4893
:102A900002F0EAFF00BF2837BD46B0BD1C0300248A
:102AA00000000024484E0108204A0108444A010859
:102AB000644A0108C5230008784A01089C4A0108B5
:102AC000552C0008B04A010880B58AB000AF034613
:102AD00087ED000AFB7107F10C0300221A605A60AF
:102AE0009A60DA601A615A619A6100233B73FB793C
:102AF0007B733B683B61074BD3F85C0107F10C012A
:102B0000002364220CF034FC034618462837BD46E7
:102B100080BD00BF1C03002480B588B000AF3B1D02
:102B200000221A605A609A60DA601A615A619A61EA
:102B300008233B71064BD3F85C01391D0023642246
:102B40000CF016FC034618462037BD4680BD00BF7A
:102B50001C03002480B58AB000AF034687ED000A4D
:102B6000FB7107F10C0300221A605A609A60DA6068
:102B70001A615A619A6101233B73FB797B733B684D
:102B80003B61074BD3F85C0107F10C010023642281
:102B90000CF0EEFB034618462837BD4680BD00BF4B
:102BA0001C03002480B58AB000AF786007F10C03E5
:102BB00000221A605A609A60DA601A615A619A615A
:102BC00003233B7307F10C0304330C227968184686
:102BD0000FF05CF8064BD3F85C0107F10C01002301
:102BE00064220CF0C5FB034618462837BD4680BD5D
:102BF0001C03002480B58AB000AF0346FB7107F1C7
:102C00000C0300221A605A609A60DA601A615A61F5
:102C10009A61FB79002B02D005233B7301E0062368
:102C20003B73074BD3F85C0107F10C0100236422CE
:102C30000CF09EFB034618462837BD4680BD00BFFA
:102C40001C03002480B400AF00231846BD465DF885
:102C5000047B704780B5A2B000AF3B1D81220021EC
:102C600018460EF071FF0FE03B79002B02D0012BCC
:102C700005D009E03B1D184600F018FC04E03B1DA0
:102C8000184600F09DFA00BF084BD3F86031391D9B
:102C90004FF0FF3218460CF00BFD0346012BE3D03A
:102CA00000BF00BF8837BD4680BD00BF1C030024A5
:102CB00080B590B000AF786039607B6893ED007AA2
:102CC0006E4BD3ED597A77EE677AC7ED0E7A7B6853
:102CD00093ED017A694BD3ED5A7A77EE677AC7EDB7
:102CE0000D7A7B6893ED027A644BD3ED5B7A77EED5
:102CF000677AC7ED0C7AD7ED0E7A27EEA77AD7ED73
:102D00000D7A67EEA77A37EE277AD7ED0C7A67EE61
:102D1000A77A77EE277AB7EEE77AB0EE470B0FF097
:102D2000E7FF87ED0A0B97ED0A0B10F025FCB0EEDC
:102D3000407BFDEEC77B17EE903A01337B623B6828
:102D40007A6A1A607A6A13465B0013449B0018463D
:102D50000EF0D2FD03463B623B6A002B01D10023FB
:102D600088E07B6A013B07EE903AB8EEE77AD7ED50
:102D70000E6AC6EE877AB7EEE77A87ED067B7B6A46
:102D8000013B07EE903AB8EEE77AD7ED0D6AC6EE52
:102D9000877AB7EEE77A87ED047B7B6A013B07EE23
:102DA000903AB8EEE77AD7ED0C6AC6EE877AB7EEBE
:102DB000E77A87ED027B0023FB6356E02F4BD3EDD0
:102DC000597AB7EEE76AFB6B07EE903AB8EEE75B2D
:102DD00097ED067B25EE077B36EE077BFA6B1346F5
:102DE0005B0013449B001A463B6A1344F7EEC77B13
:102DF000C3ED007A214BD3ED5A7AB7EEE76AFB6B4D
:102E000007EE903AB8EEE75B97ED047B25EE077B83
:102E100036EE077BFA6B13465B0013449B001A46A1
:102E20003B6A1344F7EEC77BC3ED017A134BD3ED36
:102E30005B7AB7EEE76AFB6B07EE903AB8EEE75BBA
:102E400097ED027B25EE077B36EE077BFA6B134688
:102E50005B0013449B001A463B6A1344F7EEC77BA2
:102E6000C3ED027AFB6B0133FB63FA6B7B6A9A4218
:102E7000A4DB3B6A18464037BD4680BD1C030024D6
:102E800080B588B000AF0346FB71FB792C2202FBB2
:102E900003F35033584A13447B610DF0BDF8574B90
:102EA000002283F88C2002F0C5FE386119E002F0A0
:102EB000C1FE02463B69D31A0A2B08D9FB79194691
:102EC0004F4802F0D1FD0DF0B5F8012390E0FB79F9
:102ED0000133DBB20A211846FDF748FC012002F05D
:102EE000B5FE464B93F88C30DBB283F00103DBB2C6
:102EF000002BDCD10EF0F0F90DF09CF83F4B1B6875
:102F00001B0ADBB2013BFB733C4B93F82830DBB26E
:102F1000362B09D1394B93F82E30DBB26B2B03D112
:102F2000FA7BFB799A4203D00EF008FA01235FE0A6
:102F30004FF00003FB610523BB6119E02F4ABB6919
:102F4000134428331B78DBB21A46BB69C3F105036F
:102F5000DB0002FA03F307EE903AF8EE677A97ED9A
:102F6000077A77EE277AC7ED077ABB69013BBB6129
:102F7000BB69012BE2DC214B93F82930DBB2012B3A
:102F800005D1D7ED077AF1EE677AC7ED077A7B694D
:102F90001B79012B05D1D7ED077AF1EE677AC7EDE2
:102FA000077A0EF0CBF9D7ED077A9FED167A67EE28
:102FB000877A9FED157AC7EE876A7B69D3ED027A2F
:102FC00086EEA77AFB79114A2C2101FB03F3134407
:102FD000D3ED007A77EE277AC7ED077A97ED070AE7
:102FE000FFF778F8F0EE407A7B69C3ED007A0023B2
:102FF00018462037BD4680BD1C030024D4010024A0
:10300000044B01080000B443000080470000002486
:1030100080B584B000AF0346FB710CF0FDFF1D4B83
:10302000002283F88C2002F005FEF86018E002F020
:1030300001FE0246FB68D31A0A2B07D9FB79194611
:10304000154802F011FD0CF0F5FF1FE0FB7901338C
:10305000DBB200211846FDF7FDFC012002F0F6FD71
:103060000C4B93F88C30DBB283F00103DBB2002B06
:10307000DDD10CF0DFFFFB79084A2C2101FB03F3C3
:10308000134474334FF000021A6000BF1037BD467E
:1030900080BD00BFD40100242C4B01081C03002478
:1030A00080B52DED028B86B000AF78603960404B63
:1030B0007B61404B3B61404BFB607B68B3F57A7FA3
:1030C0001BD23B684FF000021A603B684FF00002D1
:1030D0009A60D7ED037AB1EE677A7B6807EE903A93
:1030E000F8EE677A27EE277ADFED346AC7EE267AA4
:1030F0003B68C3ED017A002354E03B684FF00002C7
:103100009A607B68A3F57A737B60D7ED047AB7EE9B
:10311000E78A7B6807EE903AB8EE677AD7ED057AD2
:1031200027EE277ADFED256AC7EE267AB7EEE77A33
:10313000B0EE470B0FF04CFFB0EE407B28EE077B64
:10314000F7EEC77B3B68C3ED007AD7ED047AB7EEA4
:10315000E78A7B6807EE903AB8EE677AD7ED057A92
:1031600027EE277ADFED156AC7EE267AB7EEE77A03
:10317000B0EE470B0FF0D8FEB0EE407B28EE076BA9
:10318000D7ED047AB7EEE77A36EE476BD7ED037AE0
:10319000B7EEE77A36EE477BF7EEC77B3B68C3EDC9
:1031A000017A002318461837BD46BDEC028B80BD5E
:1031B0007CD9203F0000F0410000204100007A440B
:1031C00080B592B006AF786007F1140300221A6050
:1031D0005A609A60DA601A615A6100233B610023E9
:1031E000FB607B6801331946244802F03DFC7B6894
:1031F000581C07F10C0107F1100207F114031433F6
:10320000059307F114031033049307F114030C33EF
:10321000039307F114030833029307F114030433F3
:10322000019307F1140300930B4615490EF022FC9D
:10323000F862FB6A072B1BDDFB68092B12D0092BF8
:1032400018DC012B02D0032B06D013E007F1140386
:10325000184600F061F80EE007F11403184600F07C
:1032600077F808E007F11403184600F071F802E05F
:1032700000BF00E000BF3037BD4680BD444B0108B1
:10328000584B010880B582B000AF7860786800F0D4
:1032900077F8074BD3F8583143F00803044AC2F8D3
:1032A0005831FFF739FC034618460837BD4680BD44
:1032B0001C03002480B582B000AF7860074BD3F8C0
:1032C000583123F00803054AC2F85831786800F0F5
:1032D00057F8012318460837BD4680BD1C0300245B
:1032E00080B584B000AF78607B68D3ED007AFCEEE7
:1032F000E77A17EE903AFB60FB68DAB27B6804333A
:10330000D3ED007AB0EE670A1046FFF7DDFB034607
:1033100018461037BD4680BD80B584B000AF7860D8
:103320007B68D3ED007AFCEEE77A17EE903AFB600B
:10333000FB68DAB27B680433D3ED007AB0EE670A3B
:103340001046FFF707FC034618461037BD4680BD00
:1033500080B582B000AF78607868FFF723FC034641
:1033600018460837BD4680BD80B582B000AF786092
:103370000120FFF73FFC034618460837BD4680BDD5
:1033800080B582B000AF78600020FFF733FC0346C1
:1033900018460837BD4680BD80B588B000AF78605C
:1033A0002F4BD3F8583103F00803002B01D1012330
:1033B00052E07B68D3ED007AF1EE677AB3EE047ADF
:1033C00067EE877AC7ED077A7B680433D3ED007A1E
:1033D000B3EE047A67EE877AC7ED067A7B6810331E
:1033E00093ED007A7B681433D3ED007A37EE677A79
:1033F000F0EE006AC7EE267AB3EE047A67EE877ABB
:10340000C7ED057A7B680C33D3ED007AF1EE677A6D
:10341000B1EE047A67EE877AC7ED047A7B680833E9
:10342000D3ED007AB1EE047A67EE877AC7ED037ABE
:103430000DF052FF0B4AFB6913600A4ABB695360E7
:10344000084A7B699360074A3B69D360054AFB6879
:1034500013610DF073FF012318462037BD4680BD70
:103460001C0300249804002480B584B000AF786069
:103470000D4802F0F9FA0023FB600CE0FB68DBB2B8
:103480000133DBB21846FDF753F90A200CF01EFD9C
:10349000FB680133FB60FB68052BEFDD0123184659
:1034A0001037BD4680BD00BF944B010880B592B077
:1034B00006AF786007F10C0300221A605A609A6028
:1034C000DA601A615A617B680133BB6207F10C0252
:1034D00007F10C031433049307F10C031033039327
:1034E00007F10C030C33029307F10C03083301932B
:1034F00007F10C03043300931346294A2949B86A9B
:103500000EF0B8FA78627B6A002B04DCB96A2648B0
:1035100002F0AAFA40E00023FB6231E0234AFB6A92
:1035200052F8333019461E48FCF7F2FE0346002BD2
:1035300023D11E4AFB6ADB0013445B6807F10C02CF
:103540001046984778627B6A012B24D0D7ED037A26
:10355000B7EEE75AD7ED047AB7EEE77AD7ED056A0A
:10356000B7EEE66A8DED026B8DED007B53EC152B0B
:103570000B490F4802F078FA0EE0FB6A0133FB6258
:103580000A4AFB6A52F83330002BC7D1B96A09489E
:1035900002F06AFA00E000BF3037BD4680BD00BFD0
:1035A000040500240C4C0108244C01080C010024E3
:1035B000404C0108784C010880B52DED048B94B087
:1035C00000AFF14BDB687B64EF4BDB693B64EE4B98
:1035D000DB6AFB63ED4BD3ED087A37EEA77AEB4B52
:1035E000D3ED0E7A67EE277AC7ED0E7AE74BD3ED6F
:1035F000087AB7EEE77AB0EE001BB0EE470B0FF09B
:1036000067FDB0EE407B37EE077BF7EEC77BC7ED7B
:103610000D7ADE4BD3ED0C7AB7EEE77AB0EE001BF5
:10362000B0EE470B0FF054FDB0EE407B37EE077B5A
:10363000F7EEC77BC7ED0C7AD44BD3ED0E7AB7EE1D
:10364000E77AB0EE001BB0EE470B0FF041FDB0EE95
:10365000407B37EE077BF7EEC77BC7ED0B7AD7EDE4
:103660000D7AB7EEE78AC94BD3ED0C7AB7EEE77A5D
:10367000B0EE001BB0EE470B0FF02AFDB0EE409B02
:10368000C24BD3ED0E7AB7EEE77AB0EE001BB0EE88
:10369000470B0FF01DFDB0EE407B39EE077B28EEA7
:1036A000078BBA4BD3ED087AB7EEE77AB1EE001B81
:1036B000B0EE470B0FF00CFDB0EE407B38EE478BC1
:1036C000B24BD3ED0C7AB7EEE77AB1EE001BB0EE59
:1036D000470B0FF0FDFCB0EE407B38EE478BAB4B59
:1036E000D3ED0C7AB7EEE77AB0EE001BB0EE470BE5
:1036F0000FF0EEFCB0EE407B37EE079BA34BD3ED13
:103700000E7AB7EEE77AB0EE001BB0EE470B0FF083
:10371000DFFCB0EE407B29EE077B38EE478B9B4BFE
:10372000D3ED0E7AB7EEE77AB1EE001BB0EE470BA1
:103730000FF0CEFCB0EE407B38EE477BF7EEC77B58
:10374000C7ED0A7A914BD3ED087A37EEA77A8F4B03
:10375000D3ED0C7A67EE277AB7EEE78A8B4BD3ED81
:10376000087AB7EEE77AB0EE001BB0EE470B0FF029
:10377000AFFCB0EE407B38EE478B844BD3ED0C7A38
:10378000B7EEE77AB0EE001BB0EE470B0FF0A0FCEF
:10379000B0EE407B38EE478B7C4BD3ED0E7AB7EE24
:1037A000E77AB0EE001BB0EE470B0FF091FCB0EEE5
:1037B000407B38EE477BF7EEC77BC7ED097AD7ED44
:1037C000117AB7EEE77AB0EE001BB0EE470B0FF0C0
:1037D0007FFCB0EE407BF7EEC77BC7ED087AD7EDF4
:1037E000107AB7EEE77AB0EE001BB0EE470B0FF0A1
:1037F0006FFCB0EE407BF7EEC77BC7ED077AD7EDE5
:103800000F7AB7EEE77AB0EE001BB0EE470B0FF081
:103810005FFCB0EE407BF7EEC77BC7ED067A97ED15
:10382000087AD7ED077A77EE277A97ED067A77EE62
:10383000277AC7ED057A97ED0D7AD7ED057A27EE51
:10384000277AD7ED0A7A37EE277AD7ED0C6AD7EDCB
:10385000057A66EEA77A37EE277AD7ED0B6AD7EDB1
:10386000057A66EEA77A77EE277AB7EEE78AD7ED84
:10387000117AB7EEE77AB1EE001BB0EE470B0FF00E
:1038800027FCB0EE407B38EE478BD7ED107AB7EED1
:10389000E77AB1EE001BB0EE470B0FF019FCB0EE6B
:1038A000407B38EE478BD7ED0F7AB7EEE77AB1EE73
:1038B000001BB0EE470B0FF00BFCB0EE407B38EE78
:1038C000476BD7ED087A37EEA77AD7ED075AD7EDD1
:1038D000067A75EEA77A67EE277AB7EEE77A36EEC4
:1038E000476BD7ED077A37EEA77AD7ED067A67EE02
:1038F000277AB7EEE77A36EE477BF7EEC77BC7ED60
:10390000047AD7ED0E7AB7EEE78AD7ED047AB7EEF0
:10391000E77AB0EE470B0FF0EBF9B0EE407B38EEF4
:10392000077BB1EE475B97ED097AD7ED057A77EE25
:10393000277AB7EEE76A85EE067BF7EEC77BC7ED21
:10394000037AD7ED0E7AB7EEE78AD7ED047AB7EEB1
:10395000E77AB0EE470B0FF0CBF9B0EE407B38EED4
:10396000477BB1EE475B97ED097AD7ED057A77EEA5
:10397000277AB7EEE76A85EE067BF7EEC77BC7EDE1
:10398000027AD7ED037A03E018050024E84D010818
:10399000B7EEE77AB0EE470B0FF0CAF9B0EE407B16
:1039A00037EE077BF7EEC77BC7ED017AD7ED027ADA
:1039B000B7EEE77AB0EE470B0FF0BAF9B0EE407B06
:1039C00037EE077BF7EEC77BC7ED007A0023FB6479
:1039D0000CE01549FA6C13465B001344DB000B4402
:1039E00048337A681A60FB6C0133FB64FB6C012B73
:1039F000EFD90223BB640CE00B49BA6C13465B00A1
:103A00001344DB000B4448333A681A60BB6C013343
:103A1000BB64BB6C032BEFD900BF00BF5037BD4662
:103A2000BDEC048B80BD00BF1805002480B52DEDD2
:103A3000028B92B000AF87ED030AB86079608C4BBF
:103A4000DB6A7B648B4BD3ED087AB7EEE77AB0EE96
:103A5000001BB0EE470B0FF03BFBB0EE407BF7EEE8
:103A6000C77BC7ED107A834BD3ED0C7AB7EEE77ABC
:103A7000B0EE001BB0EE470B0FF02AFBB0EE407B20
:103A8000F7EEC77BC7ED0F7A7A4BD3ED0E7AB7EE20
:103A9000E77AB0EE001BB0EE470B0FF019FBB0EE6B
:103AA000407BF7EEC77BC7ED0E7A724BD3ED087AF9
:103AB00037EEA77A6F4BD3ED0C7A67EE277AC7ED16
:103AC0000D7A6C4BD3ED087A37EEA77A694BD3EDBC
:103AD0000E7A67EE277AC7ED0C7AD7ED037AB7EE48
:103AE000E77AB0EE470B0FF01FFAB0EE407BF7EE2F
:103AF000C77BC7ED0B7AD7ED037AB7EEE77AB0EE66
:103B0000470B0FF065FAB0EE407BF7EEC77BC7EDD1
:103B10000A7A97ED107AD7ED0F7A77EE277A97ED3C
:103B20000E7A77EE277AC7ED097A97ED0D7AD7ED01
:103B30000B7A27EE277AD7ED097A37EE277AD7ED79
:103B40000C6AD7ED0A7A66EEA77A77EE677AB7EE57
:103B5000E78AD7ED117AB7EEE77AB0EE001BB0EE48
:103B6000470B0FF0B5FAB0EE407B38EE477BB0EE76
:103B7000470B0FF0BDF8B0EE407BF7EEC77BC7ED0B
:103B8000087A3C4B93ED0C7AD7ED0B7A27EE277A27
:103B9000384BD3ED0E6AD7ED0A7A66EEA77A77EE48
:103BA000677AC7ED077A334B93ED0E7AD7ED0B7A30
:103BB00027EE277AD7ED117A37EE677A2D4BD3EDC2
:103BC0000C6AD7ED0A7A66EEA77A77EE277AC7ED08
:103BD000067A284B93ED087AD7ED087A37EE277AE4
:103BE000D7ED077A77EE277AF1EE676A97ED067AD6
:103BF000C6EE877AC7ED057A1E4B93ED087AD7EDAE
:103C0000087A37EE677AD7ED077A77EE277AF1EE02
:103C1000676A97ED067AC6EE877AC7ED047AD7ED24
:103C2000057AB7EEE77AB0EE470B0FF081F8B0EE09
:103C3000407B37EE077BF7EEC77BBB68C3ED007AAE
:103C4000D7ED047AB7EEE77AB0EE470B0FF070F8D5
:103C5000B0EE407B37EE077BF7EEC77B7B68C3EDAA
:103C6000007A00BF4837BD46BDEC028B80BD00BF67
:103C700018050024E84D010880B584B000AF4FF06E
:103C80000003FB604FF00003BB604FF000037B605C
:103C9000144B9B6CFB603A1D07F108031146184654
:103CA00097ED030AFFF7C2FEBB680E4A53647B68B8
:103CB0000C4AD3650B4B9B6FFB603A1D07F1080361
:103CC0001146184697ED030AFFF7B0FEBB68054A98
:103CD00053677B68034AC2F88C3000BF1037BD467B
:103CE00080BD00BF1805002480B52DED028B90B07B
:103CF00000AF87ED010AC7ED000A894BDB68BB63A3
:103D0000874BDB697B6397ED017AD7ED007A77EE1D
:103D1000677AC7ED0C7AD7ED0C7AB7EEE77AB0EE9A
:103D2000470B0FF001F9B0EE407BF7EEC77BC7ED14
:103D30000B7AD7ED0C7AB7EEE77AB0EE470B0FF0BF
:103D400047F9B0EE407BF7EEC77BC7ED0A7AD7EDB7
:103D5000017AB7EEE77AB0EE470B0FF0E5F8B0EE78
:103D6000407BF7EEC77BC7ED097AD7ED017AB7EE56
:103D7000E77AB0EE470B0FF02BF9B0EE407BF7EE91
:103D8000C77BC7ED087AD7ED007AB7EEE77AB0EED9
:103D9000470B0FF0C9F8B0EE407BF7EEC77BC7EDDD
:103DA000077AD7ED007AB7EEE77AB0EE470B0FF05F
:103DB0000FF9B0EE407BF7EEC77BC7ED067A594BA3
:103DC00093ED087AD7ED097A27EE277A554BD3ED94
:103DD0000C6AD7ED0B7A66EEA77A37EE277A514B4D
:103DE000D3ED0E6AD7ED0A7A66EEA77A77EE277AD8
:103DF000C7ED057A97ED057AD7ED0E7A77EE676A0B
:103E000097ED0E7AD7ED057A37EE277AC6EE877AE8
:103E1000B7EEE77AB0EE470B0EF06AFFB0EE407BEC
:103E2000F7EEC77BC7ED0F7AD7ED0F7A37EEA77A9B
:103E30003C4BD3ED086A3B4B93ED0C6AD7ED077A08
:103E400066EE277A76EEA76A364B93ED0E6AD7EDCB
:103E5000067A66EE277A76EEE76AD7ED097A66EE9D
:103E6000A76A304B93ED0E6AD7ED077A26EE276AE4
:103E70002C4BD3ED0C5AD7ED067A65EEA77A36EEC9
:103E8000276AD7ED087A66EE277A76EEA77A67EE8C
:103E9000277AB7EEE78AD7ED0F7AB7EEE77AB0EE7A
:103EA000001BB0EE470B0FF013F9B0EE407BB7EEFE
:103EB000006B37EE066B88EE067BF7EEC77BC7ED2F
:103EC000047A97ED0D7AD7ED047A77EE677AF0EE03
:103ED000E77A9FED157AF4EEC77AF1EE10FA05DD78
:103EE000D7ED0F7AF1EE677AC7ED0F7AD7ED0F7A3B
:103EF000B7EEE77AB0EE470B0EF01AFFB0EE407B5C
:103F000037EE077BF7EEC77BC7ED037AFB6807EE5A
:103F1000903AB0EE670A4037BD46BDEC028B80BDDB
:103F200018050024E84D010817B7D13880B584B0D2
:103F300000AF0023FB6028E01849FA6813465B00D5
:103F40001344DB000B4444331B68BB601349FA681D
:103F500013465B001344DB000B4448331B687B6053
:103F6000D7ED010A97ED020AFFF7BEFEF0EE407AA8
:103F70000A49FA6813465B001344DB000B444033E4
:103F8000C3ED007AFB680133FB60FB68032BD3D9D8
:103F900000BF00BF1037BD4680BD00BF180500241C
:103FA00080B52DED028B98B000AF87ED030AC7ED09
:103FB000020A87ED011AE24B1B68FB65E04B1B69A7
:103FC000BB65DF4B1B6A7B65DD4B5B683B65DC4B90
:103FD0005B69FB64DA4B5B6ABB64D94B9B687B64AF
:103FE000D74B9B693B64D64B9B6AFB63D7ED037A47
:103FF000B7EEE77AB0EE470B0EF096FFB0EE407BDF
:10400000F7EEC77BC7ED0E7AD7ED037AB7EEE77A06
:10401000B0EE470B0EF0DCFFB0EE407BF7EEC77B57
:10402000C7ED0D7AD7ED027AB7EEE77AB0EE470B1F
:104030000EF07AFFB0EE407BF7EEC77BC7ED0C7A4F
:10404000D7ED027AB7EEE77AB0EE470B0EF0C0FF7D
:10405000B0EE407BF7EEC77BC7ED0B7AD7ED017A68
:10406000B7EEE77AB0EE470B0EF05EFFB0EE407BA6
:10407000F7EEC77BC7ED0A7AD7ED017AB7EEE77A9C
:10408000B0EE470B0EF0A4FFB0EE407BF7EEC77B1F
:10409000C7ED097A97ED177AD7ED0E7A27EE277AD2
:1040A000D7ED0A7A27EE277AD7ED0B7A27EE277A13
:1040B000D7ED156AD7ED0B7A66EEA76AD7ED097AC8
:1040C00066EEA77A37EE677AD7ED176AD7ED0E7AE4
:1040D00066EEA76AD7ED0C7A66EEA76AD7ED097A85
:1040E00066EEA77A37EE677AD7ED156AD7ED0C7AC8
:1040F00066EEA76AD7ED0A7A66EEA77A37EE677A98
:10410000D7ED166AD7ED0C7A66EEA76AD7ED0D7A71
:1041100066EEA76AD7ED097A66EEA77A37EE677A78
:10412000D7ED166AD7ED0A7A66EEA76AD7ED0D7A53
:1041300066EEA76AD7ED0B7A66EEA77A77EE277A56
:10414000C7ED087A97ED147AD7ED0E7A27EE277A25
:10415000D7ED0A7A27EE277AD7ED0B7A27EE277A62
:10416000D7ED126AD7ED0B7A66EEA76AD7ED097A1A
:1041700066EEA77A37EE677AD7ED146AD7ED0E7A36
:1041800066EEA76AD7ED0C7A66EEA76AD7ED097AD4
:1041900066EEA77A37EE677AD7ED126AD7ED0C7A1A
:1041A00066EEA76AD7ED0A7A66EEA77A37EE677AE7
:1041B000D7ED136AD7ED0C7A66EEA76AD7ED0D7AC4
:1041C00066EEA76AD7ED097A66EEA77A37EE677AC8
:1041D000D7ED136AD7ED0A7A66EEA76AD7ED0D7AA6
:1041E00066EEA76AD7ED0B7A66EEA77A77EE277AA6
:1041F000C7ED077A97ED117AD7ED0E7A27EE277A79
:10420000D7ED0A7A27EE277AD7ED0B7A27EE277AB1
:10421000D7ED0F6AD7ED0B7A66EEA76AD7ED097A6C
:1042200066EEA77A37EE677AD7ED116AD7ED0E7A88
:1042300066EEA76AD7ED0C7A66EEA76AD7ED097A23
:1042400066EEA77A37EE677AD7ED0F6AD7ED0C7A6C
:1042500066EEA76AD7ED0A7A66EEA77A37EE677A36
:10426000D7ED106AD7ED0C7A66EEA76AD7ED0D7A16
:1042700066EEA76AD7ED097A66EEA77A37EE677A17
:10428000D7ED106AD7ED0A7A66EEA76AD7ED0D7AF8
:1042900066EEA76AD7ED0B7A66EEA77A77EE277AF5
:1042A000C7ED067AD7ED087AB7EEE77AB0EE001BD5
:1042B000B0EE470B0EF00CFFB0EE408BD7ED077A57
:1042C000B7EEE77AB0EE001BB0EE470B0EF000FF42
:1042D000B0EE407B38EE077BB0EE470B0EF008FDEA
:1042E000B0EE406BD7ED067AB7EEE77AB0EE471B3B
:1042F000B0EE460B0EF0D4FCB0EE407BF7EEC77B81
:10430000C7ED057AD7ED057AF1EE677AB7EEE77A71
:104310009FED096B37EE067BF7EEC77BC7ED047A9E
:104320003B6907EE903AB0EE670A6037BD46BDECD8
:10433000028B80BDAFF30080182D4454FB2109404F
:104340001805002480B584B000AF0023FB6034E082
:104350001E49FA6813465B001344DB000B444433E8
:104360001B68BB601949FA6813465B001344DB0005
:104370000B4448331B687B601449FA6813465B00A2
:104380001344DB000B4440331B683B6097ED011A7C
:10439000D7ED020A97ED000AFFF702FEF0EE407A31
:1043A0000A49FA6813465B001344DB000B445033A0
:1043B000C3ED007AFB680133FB60FB68032BC7D9B0
:1043C00000BF00BF1037BD4680BD00BF18050024E8
:1043D00080B594B000AF87ED030AC7ED020A87ED00
:1043E000011AC7ED001AD7ED007AB7EEE77A9FED14
:1043F000E86B36EE477BF7EEC77BC7ED137AD7ED58
:10440000137AF0EEE77A9FEDE67AF4EEC77AF1EEF2
:1044100010FA10D4D7ED137AB7EEE77A9FEDDC6B84
:1044200037EE467BB0EEC77B9FEDDB6BB4EEC67B11
:10443000F1EE10FA02D54FF00003A0E1D94B9B68D2
:10444000BB64D84B9B697B64D64B9B6A3B644FF043
:104450000003FB63D7ED037AB7EEE77AB0EE470BC4
:104460000EF062FDB0EE407BF7EEC77BC7ED0E7A33
:10447000D7ED037AB7EEE77AB0EE470B0EF0A8FD62
:10448000B0EE407BF7EEC77BC7ED0D7AD7ED027A31
:10449000B7EEE77AB0EE470B0EF046FDB0EE407B8C
:1044A000F7EEC77BC7ED0C7AD7ED027AB7EEE77A65
:1044B000B0EE470B0EF08CFDB0EE407BF7EEC77B05
:1044C000C7ED0B7AD7ED017AB7EEE77AB0EE470B7E
:1044D0000EF02AFDB0EE407BF7EEC77BC7ED0A7AFF
:1044E000D7ED017AB7EEE77AB0EE470B0EF070FD2C
:1044F000B0EE407BF7EEC77BC7ED097AD7ED0F7AB8
:10450000B7EEE77AB0EE470B0EF00EFDB0EE407B53
:10451000F7EEC77BC7ED087AD7ED0F7AB7EEE77AEB
:10452000B0EE470B0EF054FDB0EE407BF7EEC77BCC
:10453000C7ED077A97ED127AD7ED087A27EE277A3A
:10454000D7ED0D7A27EE277AD7ED116AD7ED0E7ADF
:1045500066EEA76AD7ED087A66EEA77A37EE677A35
:10456000D7ED106AD7ED0C7A66EEA76AD7ED097A17
:1045700066EEA76AD7ED077A66EEA77A37EE277A56
:10458000D7ED106AD7ED0A7A66EEA76AD7ED0B7AF7
:1045900066EEA76AD7ED077A66EEA77A37EE677AF6
:1045A000D7ED126AD7ED0E7A66EEA76AD7ED0C7AD0
:1045B00066EEA76AD7ED0A7A66EEA76AD7ED077AA4
:1045C00066EEA77A37EE677AD7ED116AD7ED0C7AE7
:1045D00066EEA76AD7ED0A7A66EEA76AD7ED0D7A7E
:1045E00066EEA76AD7ED077A66EEA77A37EE677AA6
:1045F000D7ED126AD7ED0E7A66EEA76AD7ED0B7A81
:1046000066EEA76AD7ED097A66EEA76AD7ED077A54
:1046100066EEA77A37EE677AD7ED116AD7ED0D7A95
:1046200066EEA76AD7ED0B7A66EEA76AD7ED097A30
:1046300066EEA76AD7ED077A66EEA77A77EE677A15
:10464000C7ED067A97ED127AD7ED0D7A27EE277A25
:10465000D7ED077A27EE277AD7ED116AD7ED0E7AD4
:1046600066EEA76AD7ED077A66EEA77A37EE677A25
:10467000D7ED106AD7ED0C7A66EEA76AD7ED087A07
:1046800066EEA76AD7ED097A66EEA77A37EE677A03
:10469000D7ED106AD7ED0A7A66EEA76AD7ED087AE9
:1046A00066EEA76AD7ED0B7A66EEA77A37EE277A21
:1046B000D7ED126AD7ED0E7A66EEA76AD7ED0C7ABF
:1046C00066EEA76AD7ED0A7A66EEA76AD7ED087A92
:1046D00066EEA77A37EE277AD7ED116AD7ED0C7A16
:1046E00066EEA76AD7ED0A7A66EEA76AD7ED087A72
:1046F00066EEA76AD7ED0D7A66EEA77A37EE277ACF
:10470000D7ED126AD7ED0E7A66EEA76AD7ED087A72
:1047100066EEA76AD7ED0B7A66EEA76AD7ED097A3F
:1047200066EEA77A37EE277AD7ED116AD7ED087AC9
:1047300066EEA76AD7ED0D7A66EEA76AD7ED0B7A1B
:1047400066EEA76AD7ED097A66EEA77A77EE277A42
:10475000C7ED057AD7ED067AB7EEE77AD7ED056AA9
:10476000B7EEE66AB0EE461BB0EE470B0EF098FAD5
:10477000B0EE407BF7EEC77BC7ED0F7AFB6B07EE21
:10478000903AB0EE670A5037BD4680BDAFF3008067
:10479000182D4454FB210940000000E0E2361A3F86
:1047A00017B7D1381805002480B586B000AF0023B4
:1047B0007B6140E024497A6913465B001344DB00C7
:1047C0000B4444331B683B611F497A6913465B0005
:1047D0001344DB000B4448331B68FB601A497A69B9
:1047E00013465B001344DB000B4440331B68BB6083
:1047F00015497A6913465B001344DB000B445033C0
:104800001B687B60D7ED011A97ED031AD7ED040AF8
:1048100097ED020AFFF7DCFDF0EE407A0A497A696B
:1048200013465B001344DB000B444C33C3ED007AAA
:104830007B6901337B617B69032BBBD900BF00BF60
:104840001837BD4680BD00BF1805002400000000D9
:1048500080B59AB000AF87ED050AC7ED040A87ED71
:10486000031AC7ED021A87ED012AD7ED017AB7EED8
:10487000E77A9FEDB56B36EE477BF7EEC77BC7ED6A
:10488000197AB54B1B683B66B34B1B69FB65B24B92
:104890001B6ABB65B04B5B687B65AF4B5B693B6577
:1048A000AD4B5B6AFB64D7ED057AB7EEE77AB0EE05
:1048B000470B0EF039FBB0EE407BF7EEC77BC7ED40
:1048C000127AD7ED057AB7EEE77AB0EE470B0EF025
:1048D0007FFBB0EE407BF7EEC77BC7ED117AD7EDDB
:1048E000047AB7EEE77AB0EE470B0EF01DFBB0EEA0
:1048F000407BF7EEC77BC7ED107AD7ED047AB7EEB1
:10490000E77AB0EE470B0EF063FBB0EE407BF7EEBC
:10491000C77BC7ED0F7AD7ED037AB7EEE77AB0EE33
:10492000470B0EF001FBB0EE407BF7EEC77BC7ED07
:104930000E7AD7ED037AB7EEE77AB0EE470B0EF0BA
:1049400047FBB0EE407BF7EEC77BC7ED0D7A4FF02B
:1049500000033B634FF00003FB62D7ED197AF0EEE2
:10496000E77A9FED7E7AF4EEC77AF1EE10FA11D471
:10497000D7ED197AB7EEE77A9FED736B37EE467B8A
:10498000B0EEC77B9FED726BB4EEC67BF1EE10FA12
:1049900040F1E680D7ED137AB1EE677AD7ED107A61
:1049A00027EE277AD7ED0D7A27EE277AD7ED136A0F
:1049B000D7ED0E7A66EEA76AD7ED0F7A66EEA77A84
:1049C00037EE277AD7ED156AD7ED127A66EEA76A29
:1049D000D7ED107A66EEA76AD7ED0E7A66EEA77A63
:1049E00037EE277AD7ED146AD7ED107A66EEA76A0C
:1049F000D7ED0E7A66EEA76AD7ED117A66EEA77A42
:104A000037EE277AD7ED156AD7ED127A66EEA76AE8
:104A1000D7ED0F7A66EEA76AD7ED0D7A66EEA77A24
:104A200037EE277AD7ED146AD7ED117A66EEA76ACA
:104A3000D7ED0F7A66EEA76AD7ED0D7A66EEA77A04
:104A400077EE277AC7ED087AD7ED167AB1EE677A56
:104A5000D7ED107A27EE277AD7ED0D7A27EE277A51
:104A6000D7ED166AD7ED0E7A66EEA76AD7ED0F7A04
:104A700066EEA77A37EE277AD7ED186AD7ED127A65
:104A800066EEA76AD7ED107A66EEA76AD7ED0E7AC2
:104A900066EEA77A37EE277AD7ED176AD7ED107A48
:104AA00066EEA76AD7ED0E7A66EEA76AD7ED117AA1
:104AB00066EEA77A37EE277AD7ED186AD7ED127A25
:104AC00066EEA76AD7ED0F7A66EEA76AD7ED0D7A84
:104AD00066EEA77A37EE277AD7ED176AD7ED117A07
:104AE00066EEA76AD7ED0F7A66EEA76AD7ED0D7A64
:104AF00066EEA77A77EE277AC7ED077AD7ED087AC0
:104B0000F1EE677AB7EEE77AD7ED076AB7EEE66AB5
:104B1000B0EE461BB0EE470B0EF0C2F8B0EE407B95
:104B2000F7EEC77BC7ED0C7AD7ED0C7AB7EEE77AD4
:104B30009FED056B37EE467BF7EEC77BC7ED0B7A33
:104B4000FB6AE0E0AFF30080182D4454FB210940DC
:104B5000000000E0E2361A3F1805002417B7D138EC
:104B600097ED157AD7ED127A27EE277AD7ED0E7AE0
:104B700027EE277AD7ED0F7A27EE277AD7ED136A3B
:104B8000D7ED0F7A66EEA76AD7ED0D7A66EEA77AB3
:104B900037EE677AD7ED156AD7ED127A66EEA76A17
:104BA000D7ED107A66EEA76AD7ED0D7A66EEA77A92
:104BB00037EE677AD7ED136AD7ED107A66EEA76AFB
:104BC000D7ED0E7A66EEA77A37EE677AD7ED146ADC
:104BD000D7ED107A66EEA76AD7ED117A66EEA76A6E
:104BE000D7ED0D7A66EEA77A37EE677AD7ED146ABD
:104BF000D7ED0E7A66EEA76AD7ED117A66EEA76A50
:104C0000D7ED0F7A66EEA77A77EE277AC7ED0A7AA4
:104C100097ED187AD7ED127A27EE277AD7ED0E7A2C
:104C200027EE277AD7ED0F7A27EE277AD7ED166A87
:104C3000D7ED0F7A66EEA76AD7ED0D7A66EEA77A02
:104C400037EE677AD7ED186AD7ED127A66EEA76A63
:104C5000D7ED107A66EEA76AD7ED0D7A66EEA77AE1
:104C600037EE677AD7ED166AD7ED107A66EEA76A47
:104C7000D7ED0E7A66EEA77A37EE677AD7ED176A28
:104C8000D7ED107A66EEA76AD7ED117A66EEA76ABD
:104C9000D7ED0D7A66EEA77A37EE677AD7ED176A09
:104CA000D7ED0E7A66EEA76AD7ED117A66EEA76A9F
:104CB000D7ED0F7A66EEA77A77EE277AC7ED097AF5
:104CC000D7ED0A7AB7EEE77AD7ED096AF1EE666AB0
:104CD000B7EEE66AB0EE461BB0EE470B0DF0E0FF14
:104CE000B0EE407BF7EEC77BC7ED0C7AD7ED0C7AC0
:104CF000B7EEE77A9FED086B37EE467BF7EEC77BA2
:104D0000C7ED0B7AFB6A07EE903AB0EE670A683798
:104D1000BD4680BDAFF30080182D4454FB210940EF
:104D200080B586B000AF00237B614CE02A497A69E8
:104D300013465B001344DB000B4440331B683B61AC
:104D400025497A6913465B001344DB000B44443366
:104D50001B68FB6020497A6913465B001344DB0043
:104D60000B4448331B68BB601B497A6913465B00E0
:104D70001344DB000B444C331B687B6016497A6993
:104D800013465B001344DB000B4450331B683B604D
:104D900097ED002AD7ED011A97ED021AD7ED030A15
:104DA00097ED040AFFF754FDF0EE407A0A497A695C
:104DB00013465B001344DB000B445433C3ED007A0D
:104DC0007B6901337B617B69032BAFD900BF00BFD7
:104DD0001837BD4680BD00BF1805002480B500AF60
:104DE000FEF7EAFBFEF748FFFFF7A0F8FFF7AAFA85
:104DF000FFF7DAFCFFF794FF024B0022C3F8A02074
:104E000000BF80BD1805002480B584B000AF00232A
:104E1000FB6035E0F9681E4800F026FE0023BB6009
:104E200016E01C49FA6813465B0013445B00BA683D
:104E3000134410339B000B44D3ED007AB7EEE77AAE
:104E400053EC172B144800F00FFEBB680133BB6016
:104E5000BB68052BE5DD0F4BD3F8A0300121FA68C4
:104E600001FA02F21340002B0CBF01230023DBB236
:104E70007B607968094800F0F7FDFB680133FB604F
:104E8000FB68032BC6D900BF00BF1037BD4680BDED
:104E9000944C010818050024A44C0108AC4C0108EE
:104EA00080B584B000AF87ED010AD7ED017AB7EE87
:104EB000E77A9FED216B27EE067BF7EEC77BC7ED08
:104EC000037AD7ED037AB7EEE77A9FED1D1BB0EEBC
:104ED000470B0DF0E9FEB0EE407BF7EEC77BC7ED68
:104EE000037AD7ED037AF5EEC07AF1EE10FA07D522
:104EF000D7ED037A9FED147A77EE877AC7ED037AC0
:104F0000D7ED037A9FED107A77EEC77AF0EEE77A65
:104F10009FED0E7AF4EEC77AF1EE10FA02D54FF05B
:104F20000003FB60FB6807EE903AB0EE670A1037AB
:104F3000BD4680BDAFF30080F8C1631ADCA54C40CC
:104F400000000000008076400000B44317B7D1385D
:104F500080B582B000AF00237B602BE000233B6074
:104F600022E018497A6813465B0013445B003A68F4
:104F7000134410339B000B44D3ED007AB0EE670A64
:104F8000FFF78EFFF0EE407A0E497A6813465B0019
:104F900013445B003A68134410339B000B44C3ED89
:104FA000007A3B6801333B603B68052BD9DD7B68A9
:104FB00001337B607B68032BD0D900BF00BF08376B
:104FC000BD4680BD1805002480B489B000AF78606C
:104FD0004FF00003FB614FF09B43BB614FF0FF3389
:104FE0007B6100233B6154E03F4BD3F8A0300121AB
:104FF0003A6901FA02F21340002B46D14FF0000348
:10500000FB610023FB602FE0D7ED077AB7EEE76A7C
:1050100035493A6913465B0013445B00FA68134450
:1050200010339B000B4493ED007A304AFB689B00E1
:105030001344D3ED007A77EE677AF0EEE77AB7EEB5
:10504000E75A2B4AFB689B001344D3ED007AB7EE76
:10505000E77A25EE077B36EE077BF7EEC77BC7EDD9
:10506000077AFB680133FB60FB68052BCCDD97ED0D
:10507000077AD7ED067AB4EEE77AF1EE10FA05D5A5
:10508000FB69BB613B697B6100E000BF3B690133A9
:105090003B613B69032BA7D97B69B3F1FF3F02D189
:1050A0004FF0FF331AE00023BB6013E0BB689B00A6
:1050B0007A68D1180C487A6913465B0013445B0088
:1050C000BA68134410339B0003441B680B60BB6831
:1050D0000133BB60BB68052BE8DD0023184624378D
:1050E000BD465DF8047B704718050024BC0500240C
:1050F000884E010880B487B000AF00237B619AE03E
:1051000000233B6190E051497A6913465B001344E8
:105110005B003A69134410339B000B441B68FB602F
:105120004B4A3B692C2101FB03F3134464331B6896
:10513000BB60474A3B692C2101FB03F313446833EE
:105140001B687B6097ED037AD7ED027A77EE677A7A
:10515000F0EEE77A9FED3F7AF4EEC77AF1EE10FABF
:1051600001D5BB68FB6097ED037AD7ED017A77EE46
:10517000677AF0EEE77A9FED377AF4EEC77AF1EED0
:1051800010FA01D57B68FB6097ED037AD7ED027AC0
:10519000B4EEE77AF1EE10FA08D5D7ED037A9FED79
:1051A0002E7A77EE877AC7ED037A10E097ED037ACF
:1051B000D7ED017AB4EEE77AF1EE10FA07DDD7ED1C
:1051C000037A9FED257A77EEC77AC7ED037A97EDDC
:1051D000037AD7ED027AB4EEE77AF1EE10FA08D44A
:1051E00097ED037AD7ED017AB4EEE77AF1EE10FA93
:1051F0000ADD164BD3F8A03001217A6901FA02F2D8
:105200001343124AC2F8A03010497A6913465B0072
:1052100013445B003A69134410339B000B44FA6853
:105220001A603B6901333B613B69052B7FF76BAF2C
:105230007B6901337B617B69032B7FF661AF00BF24
:1052400000BF1C37BD465DF8047B7047180500247D
:105250001C03002417B7D1380000B44380B582B0D6
:1052600000AF78601822796803480CF00FFD00BF8A
:105270000837BD4680BD00BFBC05002480B582B0A4
:1052800000AF786087ED000A7B68052B03D90648DC
:1052900000F0EAFB05E0054A7B689B0013443A688E
:1052A0001A600837BD4680BDB84C0108BC05002413
:1052B00080B58AB004AFF860B9607A604022F968BE
:1052C0002D480CF0E3FCFFF789FD7B68002B1FD015
:1052D000FB680C33D3ED007AB7EEE75AFB681C335A
:1052E000D3ED007AB7EEE77AFB682C33D3ED006A92
:1052F000B7EEE66A8DED026B8DED007B53EC152B5E
:105300001E4800F0B1FB1E4800F0AEFBFFF77CFD2D
:10531000FFF71EFEFFF7EEFE7B68002B04D0194856
:1053200000F0A2FBFFF770FDB868FFF74DFE386193
:105330007B68002B1BD0144800F096FB00237B6198
:105340000FE07B699B00BA681344D3ED007AB7EE97
:10535000E77A53EC172B0D4800F086FB7B6901338D
:105360007B617B69052BECDD094800F07DFB3B6927
:1053700018461837BD4680BD18050024E04C0108CA
:10538000F44C0108144D0108344D0108A44C0108E7
:10539000504D010880B584B000AFF860B9607A6004
:1053A0004022F968B8680CF071FC7B6893ED007AD4
:1053B000BB68D3ED037A77EE277ABB68C3ED037A37
:1053C0007B6893ED017ABB681033D3ED037ABB6839
:1053D000103377EE277AC3ED037A7B6893ED027A78
:1053E000BB682033D3ED037ABB68203377EE277A8E
:1053F000C3ED037A00BF1037BD4680BD80B582B0D3
:1054000000AF0C4BD3F8F4300A4A43F00203C2F861
:10541000F430084BD3F8F43003F002037B607B6870
:1054200000220F216FF0010000F0ECFC00BF0837F4
:10543000BD4680BD0044025880B590B000AF786092
:105440007B680F2B27D800227968362000F0DAFC21
:10545000362000F0F1FC294A7B681360284BD3F812
:10546000E830274A43F01003C2F8E830244BD3F861
:10547000E83003F01003FB60FB6807F1100207F14E
:1054800014031146184605F0C1FBBB6ABB63BB6B36
:10549000002B06D101E001232BE005F08BFBF86324
:1054A00004E005F087FB03465B00FB63FB6B154ADA
:1054B000A2FB03239B0C013B7B63134B134A1A6033
:1054C000114B40F2E732DA600F4A7B6B53600E4BB0
:1054D00000221A610C4B00229A600B4807F03EFA3A
:1054E0000346002B04D1084807F09AFA034600E06F
:1054F000012318464037BD4680BD00BF5C01002433
:105500000044025883DE1B43D405002400100040F1
:1055100080B400AF00BFFDE780B400AF00BFFDE77F
:1055200080B400AF00BFFDE780B400AF00BFFDE76F
:1055300080B400AF00BFFDE780B400AF00BFBD4640
:105540005DF8047B7047000080B500AF024801F0B1
:10555000B5FD00BF80BD00BF4C07002480B500AF83
:10556000024807F0BBFD00BF80BD00BFB8060024A5
:1055700080B500AF024807F0D9FA00BF80BD00BF78
:10558000D405002480B500AF024803F0CFFB00BF74
:1055900080BD00BF6402002480B586B000AF786093
:1055A000144A154BD31A7B617B693B61134B1B6813
:1055B000002B02D1114B124A1A60104B1A687B68FB
:1055C00013443A699A4207D20CF034FB03460C228A
:1055D0001A604FF0FF3309E0084B1B68FB60074B74
:1055E0001A687B681344054A1360FB68184618372D
:1055F000BD4680BD000005240004000020060024F4
:10560000F852002480B400AF3E4BD3F888303D4AB6
:1056100043F47003C2F888303B4B1B6803F00F0360
:10562000062B07D8384B1B6823F00F03364A43F08C
:1056300007031360354B1B68344A43F001031360C2
:10564000324B00221A61314B1A683049304B1340FB
:105650000B602D4B1B6803F00803002B07D02A4B6F
:105660001B6823F00F03284A43F007031360274BFE
:1056700000229A61254B0022DA61244B00221A6233
:10568000224B244A9A62214B234ADA621F4B234A57
:105690001A631E4B00225A631C4B204A9A631B4B11
:1056A0000022DA63194B1D4A1A64184B00225A640F
:1056B000164B1B68154A23F480231360134B0022FA
:1056C0001A66124BD3F8D43003F48053002B13D155
:1056D0000E4BD3F8D4300D4A43F48053C2F8D43083
:1056E0000F4B43F2D2021A60084BD3F8D430074A6A
:1056F00023F48053C2F8D43000BFBD465DF8047B6C
:10570000704700BF00ED00E0002000520044025846
:105710007FEDF6EA000202020000FF0180020101B3
:105720000040005280B400AF094BDB68084A43F0E8
:105730000203D36000BF064B5B6803F40053002BE9
:10574000F9D000BF00BFBD465DF8047B704700BFC5
:105750000048025880B500AF224B234A1A60214B03
:105760004FF4E1325A601F4B00229A601D4B002219
:10577000DA601C4B00221A611A4B0C225A61194B39
:1057800000229A61174B0022DA61164B00221A623E
:10579000144B00225A62134B00229A62114807F000
:1057A000BFFB0346002B01D0FBF73AFC00210D485C
:1057B00009F0AAF90346002B01D0FBF731FC0021C8
:1057C000084809F0DFF90346002B01D0FBF728FC5D
:1057D000044809F060F90346002B01D0FBF720FCD8
:1057E00000BF80BD240600240010014080B500AF3A
:1057F000224B234A1A60214B4FF4E1325A601F4B6F
:1058000000229A601D4B0022DA601C4B00221A61B4
:105810001A4B0C225A61194B00229A61174B002235
:10582000DA61164B00221A62144B00225A62134BA3
:1058300000229A62114807F073FB0346002B01D047
:10584000FBF7EEFB00210D4809F05EF90346002B43
:1058500001D0FBF7E5FB0021084809F093F9034666
:10586000002B01D0FBF7DCFB044809F014F90346D8
:10587000002B01D0FBF7D4FB00BF80BDB80600248D
:105880000048004080B5BAB000AF786007F1D4039B
:1058900000221A605A609A60DA601A6107F11803F0
:1058A000B822002118460CF04FF97B681B68684A43
:1058B000934247D14FF001024FF00003C7E906239E
:1058C0000023C7F8903007F11803184605F0E0F9F7
:1058D0000346002B01D0FBF7A3FB5E4BD3F8F0305F
:1058E0005C4A43F01003C2F8F0305A4BD3F8F03062
:1058F00003F010037B617B69564BD3F8E030554AC7
:1059000043F00203C2F8E030524BD3F8E03003F02A
:1059100002033B613B694FF44043C7F8D430022394
:10592000C7F8D8300023C7F8DC300023C7F8E030D0
:105930000423C7F8E43007F1D4031946464803F0BE
:1059400003FF81E07B681B68444A93427CD14FF09F
:1059500002024FF00003C7E906230023C7F88C308A
:1059600007F11803184605F093F90346002B01D000
:10597000FBF756FB374BD3F8E830364A43F4802325
:10598000C2F8E830334BD3F8E83003F48023FB60EF
:10599000FB68304BD3F8E0302E4A43F00203C2F8E4
:1059A000E0302C4BD3F8E03003F00203BB60BB685F
:1059B0004FF44063C7F8D4300223C7F8D83000232F
:1059C000C7F8DC300023C7F8E0300723C7F8E4301D
:1059D00007F1D4031946204803F0B6FE204B214AB4
:1059E0001A601F4B2D225A601D4B00229A601C4BDF
:1059F0000022DA601A4B4FF480621A61184B0022C1
:105A00005A61174B00229A61154B0022DA61144B40
:105A100000221A62124B00225A62114800F092FAD8
:105A20000346002B01D0FBF7FBFA7B680C4AC3F856
:105A300080200B4A7B68936300220021272000F01E
:105A4000E1F9272000F0F8F900BFE837BD4680BD36
:105A50000010014000440258000402580048004071
:105A60004C070024100002400FB480B5A2B000AF74
:105A700007F19403C7F88430381DD7F88430D7F87D
:105A8000902080210CF052F80BF026FC3B1D1846AC
:105A9000FAF748FC03469AB2391D4FF0FF33064827
:105AA00007F08EFA0BF04AFC00BF8837BD46BDE810
:105AB000804004B0704700BF240600240FB480B5B6
:105AC000A6B000AF07F1A403C7F88430381DD7F89B
:105AD0008430D7F8A02080210CF028F8EFF3118251
